:100000000BC108C007C006C005C004C05DC102C066
:1000100001C000C01895808386898C909396999C26
:100020009FA2A5A8ABAEB1B3B6B9BCBFC1C4C7C986
:10003000CCCED1D3D5D8DADCDEE0E2E4E6E8EAEBF8
:10004000EDEFF0F1F3F4F5F6F8F9FAFAFBFCFDFD4B
:10005000FEFEFEFFFFFFFFFFFFFFFEFEFEFDFDFCBD
:10006000FBFAFAF9F8F6F5F4F3F1F0EFEDEBEAE864
:10007000E6E4E2E0DEDCDAD8D5D3D1CECCC9C7C421
:10008000C1BFBCB9B6B3B1AEABA8A5A29F9C9996AF
:1000900093908C898683807D7A7774706D6A6764AB
:1000A000615E5B5855524F4D4A4744413F3C39379A
:1000B00034322F2D2B28262422201E1C1A18161508
:1000C0001311100F0D0C0B0A080706060504030395
:1000D0000202020101010101010102020203030403
:1000E00005060607080A0B0C0D0F1011131516183C
:1000F0001A1C1E20222426282B2D2F323437393C5F
:100100003F4144474A4D4F5255585B5E6164676AB0
:100110006D7074777A7DFFFDFAF8F5F3F0EEEBE998
:10012000E6E4E2DFDDDBD8D6D4D2D0CDCBC9C7C57B
:10013000C3C1BFBDBBB9B7B5B3B2B0AEACAAA8A777
:10014000A5A3A1A09E9C9B999896949391908E8D27
:100150008B8A888785848281807E7D7B7A79777699
:1001600075747271706F6D6C6B6A686766656463D5
:1001700062605F5E5D5C5B5A5958575655545352E6
:1001800051504F4E4D4C4B4A4948474746454443D2
:10019000424140403F3E3D3C3C3B3A39393837369E
:1001A0003635343333323131302F2E2E2D2D2C2B4A
:1001B0002B2A2929282827262625252423232222DD
:1001C000212120201F1F1E1E1D1D1C1C1B1B1A1A57
:1001D0001A191918181717171616151515141414B7
:1001E0001313131212121111111010100F0F0F0F01
:1001F0000E0E0E0D0D0D0D0D0C0C0C0C0B0B0B0B38
:100200000B0A0A0A0A0A0A09090909090909090857
:10021000080808080808C001112420E0A0E6B0E0A2
:1002200001C01D92AA36B207E1F711E0CCE0D1E09F
:1002300003C02197FE01AFD0CB30D107D1F781E0C9
:1002400087BB93E89FBD83BF84E089BF86B1836885
:1002500086B97894C2E2D3E211E0EE24E394F12C63
:10026000C7B929D085B180936300D7B924D085B1AF
:1002700080936400B29BF4CF809160009091610004
:10028000009789F480916300109265008093660066
:10029000109268001092670010936200F092610063
:1002A000E0926000DDCF8B369841D0F21092610071
:1002B00010926000D5CF379A369A3699FECF369A8B
:1002C0003699FECF379808951F920F920FB60F926E
:1002D00011242F933F938F939F93EF93FF938091DC
:1002E000690086BF8091600090916100009729F0BD
:1002F0000196909361008093600080916200882352
:1003000069F1209164008091650090916600820FF0
:10031000911D9093660080936500E92FFF27EA5EA8
:10032000FE4FE4912091670030916800E20FF32FB7
:10033000F11DF0936800E093670034E0F695E795CF
:100340003A95E1F7FF27EA5EFF4FE491E0936900F9
:1003500081309F4F50F01092620007C08091690079
:10036000882319F0815080936900FF91EF919F914C
:100370008F913F912F910F900FBE0F901F90189566
:10038000E2E6F0E010821182128214821382168259
:10039000158217820895EE0FFF1F0590F491E02D4E
:0203A0000994BE
:00000001FF
